{
  "_format": "hh-sol-artifact-1",
  "contractName": "GovernanceProposals",
  "sourceName": "contracts/GovernanceProposals.sol",
  "abi": [
    {
      "anonymous": false,
      "inputs": [
        {
          "indexed": true,
          "internalType": "uint256",
          "name": "proposalId",
          "type": "uint256"
        },
        {
          "indexed": true,
          "internalType": "address",
          "name": "proposer",
          "type": "address"
        },
        {
          "indexed": false,
          "internalType": "string",
          "name": "title",
          "type": "string"
        }
      ],
      "name": "ProposalCreated",
      "type": "event"
    },
    {
      "inputs": [
        {
          "internalType": "string",
          "name": "_title",
          "type": "string"
        },
        {
          "internalType": "string",
          "name": "_description",
          "type": "string"
        }
      ],
      "name": "createProposal",
      "outputs": [],
      "stateMutability": "nonpayable",
      "type": "function"
    },
    {
      "inputs": [
        {
          "internalType": "uint256",
          "name": "_proposalId",
          "type": "uint256"
        }
      ],
      "name": "getProposal",
      "outputs": [
        {
          "internalType": "uint256",
          "name": "id",
          "type": "uint256"
        },
        {
          "internalType": "string",
          "name": "title",
          "type": "string"
        },
        {
          "internalType": "string",
          "name": "description",
          "type": "string"
        },
        {
          "internalType": "address",
          "name": "proposer",
          "type": "address"
        },
        {
          "internalType": "uint256",
          "name": "timestamp",
          "type": "uint256"
        }
      ],
      "stateMutability": "view",
      "type": "function"
    },
    {
      "inputs": [],
      "name": "getProposalCount",
      "outputs": [
        {
          "internalType": "uint256",
          "name": "",
          "type": "uint256"
        }
      ],
      "stateMutability": "view",
      "type": "function"
    },
    {
      "inputs": [
        {
          "internalType": "address",
          "name": "_user",
          "type": "address"
        }
      ],
      "name": "getUserProposals",
      "outputs": [
        {
          "internalType": "uint256[]",
          "name": "",
          "type": "uint256[]"
        }
      ],
      "stateMutability": "view",
      "type": "function"
    },
    {
      "inputs": [
        {
          "internalType": "uint256",
          "name": "",
          "type": "uint256"
        }
      ],
      "name": "proposals",
      "outputs": [
        {
          "internalType": "uint256",
          "name": "id",
          "type": "uint256"
        },
        {
          "internalType": "string",
          "name": "title",
          "type": "string"
        },
        {
          "internalType": "string",
          "name": "description",
          "type": "string"
        },
        {
          "internalType": "address",
          "name": "proposer",
          "type": "address"
        },
        {
          "internalType": "uint256",
          "name": "timestamp",
          "type": "uint256"
        }
      ],
      "stateMutability": "view",
      "type": "function"
    },
    {
      "inputs": [
        {
          "internalType": "address",
          "name": "",
          "type": "address"
        },
        {
          "internalType": "uint256",
          "name": "",
          "type": "uint256"
        }
      ],
      "name": "userProposals",
      "outputs": [
        {
          "internalType": "uint256",
          "name": "",
          "type": "uint256"
        }
      ],
      "stateMutability": "view",
      "type": "function"
    }
  ],
  "bytecode": "0x608060405234801561001057600080fd5b5061106b806100206000396000f3fe608060405234801561001057600080fd5b50600436106100625760003560e01c8063013cf08b146100675780631b31527f1461009b57806365e481e2146100cb57806378ef1138146100e7578063c08cc02d14610117578063c7f758a814610135575b600080fd5b610081600480360381019061007c91906107eb565b610169565b6040516100929594939291906108f8565b60405180910390f35b6100b560048036038101906100b09190610985565b6102df565b6040516100c291906109c5565b60405180910390f35b6100e560048036038101906100e09190610b15565b610310565b005b61010160048036038101906100fc9190610b8d565b6104c4565b60405161010e9190610c78565b60405180910390f35b61011f61055b565b60405161012c91906109c5565b60405180910390f35b61014f600480360381019061014a91906107eb565b610567565b6040516101609594939291906108f8565b60405180910390f35b6000818154811061017957600080fd5b90600052602060002090600502016000915090508060000154908060010180546101a290610cc9565b80601f01602080910402602001604051908101604052809291908181526020018280546101ce90610cc9565b801561021b5780601f106101f05761010080835404028352916020019161021b565b820191906000526020600020905b8154815290600101906020018083116101fe57829003601f168201915b50505050509080600201805461023090610cc9565b80601f016020809104026020016040519081016040528092919081815260200182805461025c90610cc9565b80156102a95780601f1061027e576101008083540402835291602001916102a9565b820191906000526020600020905b81548152906001019060200180831161028c57829003601f168201915b5050505050908060030160009054906101000a900473ffffffffffffffffffffffffffffffffffffffff16908060040154905085565b600160205281600052604060002081815481106102fb57600080fd5b90600052602060002001600091509150505481565b60008080549050905060006040518060a001604052808381526020018581526020018481526020013373ffffffffffffffffffffffffffffffffffffffff1681526020014281525090806001815401808255809150506001900390600052602060002090600502016000909190919091506000820151816000015560208201518160010190816103a09190610ea6565b5060408201518160020190816103b69190610ea6565b5060608201518160030160006101000a81548173ffffffffffffffffffffffffffffffffffffffff021916908373ffffffffffffffffffffffffffffffffffffffff160217905550608082015181600401555050600160003373ffffffffffffffffffffffffffffffffffffffff1673ffffffffffffffffffffffffffffffffffffffff1681526020019081526020016000208190806001815401808255809150506001900390600052602060002001600090919091909150553373ffffffffffffffffffffffffffffffffffffffff16817f7585f467599d0f008985f231af99293be388626ac16ca59505c2f8f88969cd63856040516104b79190610f78565b60405180910390a3505050565b6060600160008373ffffffffffffffffffffffffffffffffffffffff1673ffffffffffffffffffffffffffffffffffffffff16815260200190815260200160002080548060200260200160405190810160405280929190818152602001828054801561054f57602002820191906000526020600020905b81548152602001906001019080831161053b575b50505050509050919050565b60008080549050905090565b600060608060008060008054905086106105b6576040517f08c379a00000000000000000000000000000000000000000000000000000000081526004016105ad90610fe6565b60405180910390fd5b60008087815481106105cb576105ca611006565b5b90600052602060002090600502016040518060a0016040529081600082015481526020016001820180546105fe90610cc9565b80601f016020809104026020016040519081016040528092919081815260200182805461062a90610cc9565b80156106775780601f1061064c57610100808354040283529160200191610677565b820191906000526020600020905b81548152906001019060200180831161065a57829003601f168201915b5050505050815260200160028201805461069090610cc9565b80601f01602080910402602001604051908101604052809291908181526020018280546106bc90610cc9565b80156107095780601f106106de57610100808354040283529160200191610709565b820191906000526020600020905b8154815290600101906020018083116106ec57829003601f168201915b505050505081526020016003820160009054906101000a900473ffffffffffffffffffffffffffffffffffffffff1673ffffffffffffffffffffffffffffffffffffffff1673ffffffffffffffffffffffffffffffffffffffff168152602001600482015481525050905080600001518160200151826040015183606001518460800151955095509550955095505091939590929450565b6000604051905090565b600080fd5b600080fd5b6000819050919050565b6107c8816107b5565b81146107d357600080fd5b50565b6000813590506107e5816107bf565b92915050565b600060208284031215610801576108006107ab565b5b600061080f848285016107d6565b91505092915050565b610821816107b5565b82525050565b600081519050919050565b600082825260208201905092915050565b60005b83811015610861578082015181840152602081019050610846565b60008484015250505050565b6000601f19601f8301169050919050565b600061088982610827565b6108938185610832565b93506108a3818560208601610843565b6108ac8161086d565b840191505092915050565b600073ffffffffffffffffffffffffffffffffffffffff82169050919050565b60006108e2826108b7565b9050919050565b6108f2816108d7565b82525050565b600060a08201905061090d6000830188610818565b818103602083015261091f818761087e565b90508181036040830152610933818661087e565b905061094260608301856108e9565b61094f6080830184610818565b9695505050505050565b610962816108d7565b811461096d57600080fd5b50565b60008135905061097f81610959565b92915050565b6000806040838503121561099c5761099b6107ab565b5b60006109aa85828601610970565b92505060206109bb858286016107d6565b9150509250929050565b60006020820190506109da6000830184610818565b92915050565b600080fd5b600080fd5b7f4e487b7100000000000000000000000000000000000000000000000000000000600052604160045260246000fd5b610a228261086d565b810181811067ffffffffffffffff82111715610a4157610a406109ea565b5b80604052505050565b6000610a546107a1565b9050610a608282610a19565b919050565b600067ffffffffffffffff821115610a8057610a7f6109ea565b5b610a898261086d565b9050602081019050919050565b82818337600083830152505050565b6000610ab8610ab384610a65565b610a4a565b905082815260208101848484011115610ad457610ad36109e5565b5b610adf848285610a96565b509392505050565b600082601f830112610afc57610afb6109e0565b5b8135610b0c848260208601610aa5565b91505092915050565b60008060408385031215610b2c57610b2b6107ab565b5b600083013567ffffffffffffffff811115610b4a57610b496107b0565b5b610b5685828601610ae7565b925050602083013567ffffffffffffffff811115610b7757610b766107b0565b5b610b8385828601610ae7565b9150509250929050565b600060208284031215610ba357610ba26107ab565b5b6000610bb184828501610970565b91505092915050565b600081519050919050565b600082825260208201905092915050565b6000819050602082019050919050565b610bef816107b5565b82525050565b6000610c018383610be6565b60208301905092915050565b6000602082019050919050565b6000610c2582610bba565b610c2f8185610bc5565b9350610c3a83610bd6565b8060005b83811015610c6b578151610c528882610bf5565b9750610c5d83610c0d565b925050600181019050610c3e565b5085935050505092915050565b60006020820190508181036000830152610c928184610c1a565b905092915050565b7f4e487b7100000000000000000000000000000000000000000000000000000000600052602260045260246000fd5b60006002820490506001821680610ce157607f821691505b602082108103610cf457610cf3610c9a565b5b50919050565b60008190508160005260206000209050919050565b60006020601f8301049050919050565b600082821b905092915050565b600060088302610d5c7fffffffffffffffffffffffffffffffffffffffffffffffffffffffffffffffff82610d1f565b610d668683610d1f565b95508019841693508086168417925050509392505050565b6000819050919050565b6000610da3610d9e610d99846107b5565b610d7e565b6107b5565b9050919050565b6000819050919050565b610dbd83610d88565b610dd1610dc982610daa565b848454610d2c565b825550505050565b600090565b610de6610dd9565b610df1818484610db4565b505050565b5b81811015610e1557610e0a600082610dde565b600181019050610df7565b5050565b601f821115610e5a57610e2b81610cfa565b610e3484610d0f565b81016020851015610e43578190505b610e57610e4f85610d0f565b830182610df6565b50505b505050565b600082821c905092915050565b6000610e7d60001984600802610e5f565b1980831691505092915050565b6000610e968383610e6c565b9150826002028217905092915050565b610eaf82610827565b67ffffffffffffffff811115610ec857610ec76109ea565b5b610ed28254610cc9565b610edd828285610e19565b600060209050601f831160018114610f105760008415610efe578287015190505b610f088582610e8a565b865550610f70565b601f198416610f1e86610cfa565b60005b82811015610f4657848901518255600182019150602085019450602081019050610f21565b86831015610f635784890151610f5f601f891682610e6c565b8355505b6001600288020188555050505b505050505050565b60006020820190508181036000830152610f92818461087e565b905092915050565b7f50726f706f73616c20646f6573206e6f74206578697374000000000000000000600082015250565b6000610fd0601783610832565b9150610fdb82610f9a565b602082019050919050565b60006020820190508181036000830152610fff81610fc3565b9050919050565b7f4e487b7100000000000000000000000000000000000000000000000000000000600052603260045260246000fdfea264697066735822122010b23ae61e6aaf7182f9566eca67cb528387665352af129f05da110c09d95ac364736f6c63430008140033",
  "linkReferences": {},
  "deployedLinkReferences": {}
}